:0400000007EF00F016
:0A00080001820DED03F05CEF05F03E
:10060000004F46460052504D003C2D002D3E004903
:090610004E005350004752000057
:10061A000600F2A413EF03F015EF03F090EF03F0D6
:10062A00080ED624D66E000ED720D76E154A162A83
:10063A00210E151807E14E0E1618D8A427EF03F05D
:10064A0029EF03F08FEF03F0166A000E156E1704F8
:10065A00D8A432EF03F034EF03F055EF03F081A092
:10066A0039EF03F03DEF03F0026A022A3EEF03F08E
:10067A00026A81500218FE0B0218816E81A248EFAD
:10068A0003F04CEF03F0026A022A4DEF03F0026A0C
:10069A00024681500218FD0B0218816E8FEF03F09B
:1006AA00020E1718D8A45CEF03F05EEF03F083EF95
:1006BA0003F081AC63EF03F067EF03F0026A022AEA
:1006CA0068EF03F0026A023A0246024681500218B3
:1006DA00BF0B0218816E81AE75EF03F079EF03F05C
:1006EA00026A022A7AEF03F0026A02320232815067
:1006FA0002187F0B0218816E8FEF03F01750D8A4EF
:10070A0089EF03F08BEF03F08FEF03F08190819272
:10071A00819C819EF294019211001E0E0B6E190E9D
:10072A000C6E200E0D6E3AEC04F02050190FD96EA3
:10073A00DA6ADF6A100E1E181F10D8A4A7EF03F09A
:10074A00A9EF03F0B1EF03F0190E086E20C009F00B
:10075A0026EC05F0E5EF03F0200E1E181F10D8A4B2
:10076A00B9EF03F0BBEF03F0C3EF03F0190E086E05
:10077A0020C009F04AEC05F0E5EF03F0300E1E1830
:10078A001F10D8A4CBEF03F0CDEF03F0D5EF03F0A1
:10079A00190E086E20C009F038EC05F0E5EF03F0F9
:1007AA00500E1E181F10D8A4DDEF03F0DFEF03F080
:1007BA00E5EF03F0190E086E20C009F0E6EC03F02D
:1007CA0012000F0E056E0550D8A4060E066E8C0E8A
:1007DA00076E7EEC04F00850D96EDA6ADE04D8A4FB
:1007EA00F9EF03F0FBEF03F009EF04F0010E176EC7
:1007FA00090E056E0550D8A4060E066ECD0E076EBC
:10080A007EEC04F039EF04F00850D96EDA6A020E71
:10081A00DE18D8A413EF04F015EF04F023EF04F068
:10082A00020E176E0C0E056E0550D8A4060E066E43
:10083A00CD0E076E7EEC04F039EF04F00850D96E45
:10084A00DA6ADF50D8A42CEF04F02EEF04F039EF67
:10085A0004F0176A010E056E0550D8A4060E066E3E
:10086A00CC0E076E7EEC04F0120060AE3FEF04F08F
:10087A0041EF04F07DEF04F0D2EC04F00B50D96E96
:10088A00DA6A03C0DEFF04C0DDFF0D50D96EDA6AF2
:10089A0065CFDFFF660E116E0F0E126E146A000E20
:1008AA00136E66EF04F013501124D96E14501220FF
:1008BA00DA6E0C501324E16EE26ADFCFE7FF134AC7
:1008CA00142A0D50D96EDA6ADF500E6E0F6A0E5076
:1008DA00135C1450800A106E0F50800A1058D8A06A
:1008EA0079EF04F07BEF04F058EF04F0609EA490D7
:1008FA001200000E036E0750EFEC04F09BEF04F0B9
:10090A00010E036E05C0F6FF06C0F7FFF86A050E72
:10091A00F76403D00800F55005D0F6CFE9FFF7CF0A
:10092A00EAFFEF50EFEC04F0054A062A05C0F6FF8D
:10093A0006C0F7FFF86A050EF76403D00800F55001
:10094A0005D0F6CFE9FFF7CFEAFFEF500009D8A4A8
:10095A00B1EF04F0B3EF04F085EF04F012009394C2
:10096A0093861F0E6F166F8E800E6E18D8A4C0EF76
:10097A0004F0C2EF04F0B9EF04F0776AE10E706E8A
:10098A001B0E716E030E726E0D01D46B1F0E6F1665
:10099A006F50606A608A608C12006150056E066A48
:1009AA00D89005360636D89005360636D8900536DC
:1009BA0006366238E842070B070B076E086A0550CD
:1009CA000710096E065008100A6E09C003F00AC023
:1009DA0004F01200046E03B0F5EF04F0F8EF04F02F
:1009EA008282F9EF04F0829204C083FF82848294A7
:1009FA00958E828082928284829483BE07EF05F06C
:100A0A0009EF05F000EF05F08290959E1200956AB5
:100A1A009450F80B946E8290000E036E020EEFEC67
:100A2A0004F0000E036E380EEFEC04F0000E036EB5
:100A3A000C0EEFEC04F0000E036E010EEFEC04F066
:100A4A001200120E056E0550D8A4060E066E800E10
:100A5A00076E7EEC04F008C005F0066AC00E076E49
:100A6A007EEC04F01200050E056E0550D8A4060EA1
:100A7A00066E870E076E7EEC04F008C005F0066A63
:100A8A00C70E076E7EEC04F01200150E056E0550B7
:100A9A00D8A4060E066E830E076E7EEC04F008C01C
:100AAA0005F0066AC30E076E7EEC04F0120000EE33
:100ABA0015F00C0EEE6AE806FDE101900192000EB7
:100ACA00F86E00017EEF05F00CEC05F0B4EC04F0D2
:100ADA0086EC05F0F28CF28E74EC05F01200D58CDF
:100AEA00D59AD58ED586D76A060ED66EF294F28A34
:100AFA00120069EC05F092EC03F080EF05F007EFC5
:0A0B0A0000F0080E936E816A1200DD
:00000001FF
