:04000000FEEF17F008
:1023AC000F0EC16E1E0E936EF19E8150E009816E70
:1023BC001200C08EC09AC088C096C090C082C094D3
:1023CC00C292C19AC198C46AC36AC28012003FEC1F
:1023DC0013F0DFEC11F0D6EC11F0E9EC13F092EC09
:1023EC0013F0F3EF11F0FEEF17F0014F4E004E55C6
:1023FC00004731004732004733004734004735006F
:10240C00525600434F00F60EF66E230EF76E000E7A
:10241C00F86E00EE3DF010EE1CF00900F5CFEEFF6B
:10242C00E550E150FAE15E6A5D6A5C6A5B6A5A6A81
:10243C00596A000EF86E0001EDEF11F0026E01B05A
:10244C002AEF12F02DEF12F082822EEF12F0829210
:10245C0002C083FF82848294958E828082928284D1
:10246C00829483BE3CEF12F03EEF12F035EF12F087
:10247C008290959E1200076E07C003F0D890033629
:10248C00D8900336C250C30B0310C26EC282C2B2C4
:10249C0052EF12F054EF12F04DEF12F0C350C4CFC4
:1024AC0003F0046A03C004F0036A0310056E0450C1
:1024BC00066E05C001F006C002F0120003500410B5
:1024CC00D8B46BEF12F06DEF12F091EF12F0010E29
:1024DC00056E75EF12F0D89003360436052A04AE5B
:1024EC007AEF12F07CEF12F071EF12F00350015CF6
:1024FC0004500258D8A085EF12F087EF12F08BEF42
:10250C0012F00350015E0450025AD8900432033288
:10251C00052E7CEF12F001C001F002C002F0120097
:10252C00000E016E055024EC12F0B3EF12F0010E08
:10253C00016E03C0F6FF04C0F7FFF86A050EF764DE
:10254C0003D00800F55005D0F6CFE9FFF7CFEAFF2E
:10255C00EF5024EC12F0034A042A03C0F6FF04C027
:10256C00F7FFF86A050EF76403D00800F55005D0A4
:10257C00F6CFE9FFF7CFEAFFEF500009D8A4C9EF77
:10258C0012F0CBEF12F09DEF12F01200066A000E63
:10259C00056E03500410D8B4D6EF12F0D8EF12F039
:1025AC0000EF13F0010E076EE0EF12F0D890033637
:1025BC000436072A04AEE5EF12F0E7EF12F0DCEF79
:1025CC0012F0D890053606360350015C04500258C0
:1025DC00D8A0F3EF12F0F5EF12F0FAEF12F003506F
:1025EC00015E0450025A0580D89004320332072E43
:1025FC00E7EF12F005C001F006C002F01200016E08
:10260C000104D8A40CEF13F00EEF13F031EF13F01C
:10261C00D2EC14F05B6E5B28D8B417EF13F019EF03
:10262C0013F025EF13F03D50D8B41FEF13F021EF4A
:10263C0013F025EF13F03D6A5B503EEF13F05B286F
:10264C00D8A42BEF13F02DEF13F03DEF13F0010E88
:10265C003D6E3DEF13F00150D8A437EF13F039EF76
:10266C0013F03DEF13F0D2EC14F03EEF13F0FF0E2D
:10267C001200956A9450F80B946E8290C30E036E00
:10268C00CD0EE82EFED7032EFCD70000000E016EF7
:10269C00330E24EC12F01B0E036E9E0EE82EFED7AA
:1026AC00032EFCD700D0000E016E330E24EC12F07A
:1026BC00A60EE82EFED700D0000E016E330E24ECD1
:1026CC0012F000D000D00000000E016E020E24ECBF
:1026DC0012F0A60EE82EFED700D0000E016E380EBA
:1026EC0024EC12F0A60EE82EFED700D0000E016EE0
:1026FC00010E24EC12F0040E036E3E0EE82EFED7F3
:10270C00032EFCD7000E016E0C0E24EC12F0A60E5C
:10271C00E82EFED700D01200010E05EC13F0076E68
:10272C000704D8A49CEF13F09EEF13F0AEEF13F058
:10273C005ABEACEF13F05A5007E1080E595CD8B0F2
:10274C00AAEF13F0ACEF13F0AEEF13F0594A5A2A7C
:10275C00020E0718D8A4B5EF13F0B7EF13F0C8EFBB
:10276C0013F05ABEC3EF13F05A5009E1020E595C34
:10277C00D8A0C3EF13F0C5EF13F0C8EF13F0590650
:10278C00D8A05A06030E0718D8A4CFEF13F0D1EF38
:10279C0013F0D4EF13F05A6A080E596EF50E036E4F
:1027AC002F0E046E890E056E96EC12F05950030D27
:1027BC00F3503E0F066E06C003F0046ACA0E056E97
:1027CC0096EC12F01200AE0E1A6E470E1B6E250E12
:1027DC001C6E410E1D6E040E41EC12F001C008F08F
:1027EC0002C009F00A6A0B6A000E56EC15F008C01C
:1027FC0016F009C017F00AC018F00BC019F030EC35
:10280C0016F016C02FF017C030F018C031F019C0F8
:10281C0032F04FEC14F02FC03BF030C03CF03BC01A
:10282C0001F03CC002F0046A0A0E036ECCEC12F00C
:10283C000150300F5C6E3BC001F03CC002F0046AEA
:10284C000A0E036E64EC12F00150300F5D6E5E6A7E
:10285C00EF0E036E2F0E046E800E056E96EC12F0CA
:10286C005C0E036E046AC20E056E96EC12F0C30E7B
:10287C003A6E500E396E3906D8A03A06392806E160
:10288C003A28D8A44CEF14F04EEF14F041EF14F0AA
:10289C00120031343234386E3850D8A458EF14F05A
:1028AC005AEF14F064EF14F0000E2F6E000E306E21
:1028BC00000E316E000E326ED1EF14F02FC033F0DB
:1028CC0030C034F031C035F032C036F0200E74EF29
:1028DC0014F0D8903632353234323332E82E6FEF72
:1028EC0014F03350376E318EFF0E2F16FF0E30164C
:1028FC00FF0E3116000E3216960E385E38BE8BEF78
:10290C0014F089EF14F0A1EF14F03850800A970FEF
:10291C00D8B093EF14F095EF14F097EF14F05AEF42
:10292C0014F0D8903232313230322F32383E97EFA9
:10293C0014F0B9EF14F01F0E3864A7EF14F0A9EFE0
:10294C0014F0B1EF14F05AEF14F0D8902F36303653
:10295C003136323638063850D8A4B7EF14F0B9EF08
:10296C0014F0ABEF14F03750D8B4BFEF14F0C1EF44
:10297C0014F0C9EF14F0321E311E301E2F6C000EF5
:10298C003022312232222FC02FF030C030F031C033
:10299C0031F032C032F01200819A818C818E81B27A
:1029AC00DAEF14F0DCEF14F0DFEF14F0010E55EF5A
:1029BC0015F081B4E4EF14F0E6EF14F0E9EF14F045
:1029CC00040E55EF15F081B6EEEF14F0F0EF14F0A5
:1029DC00F3EF14F0070E55EF15F081B8F8EF14F083
:1029EC00FAEF14F0FDEF14F00A0E55EF15F0818A92
:1029FC00819C818E81B205EF15F007EF15F00AEF7F
:102A0C0015F0020E55EF15F081B40FEF15F011EF24
:102A1C0015F014EF15F0050E55EF15F081B619EF02
:102A2C0015F01BEF15F01EEF15F0080E55EF15F015
:102A3C0081B823EF15F025EF15F028EF15F00B0EEC
:102A4C0055EF15F0818A818C819E819E81B231EF88
:102A5C0015F033EF15F036EF15F0030E55EF15F0BA
:102A6C0081B43BEF15F03DEF15F040EF15F0060E7D
:102A7C0055EF15F081B645EF15F047EF15F04AEF1D
:102A8C0015F0090E55EF15F081B84FEF15F051EF19
:102A9C0015F054EF15F00C0E55EF15F0FF0E12005B
:102AAC00106E1050D8B45DEF15F05FEF15F081EF9C
:102ABC0015F00BBE66EF15F064EF15F081EF15F015
:102ACC0008C00CF009C00DF00AC00EF00BC00FF0DE
:102ADC000C1E0D1E0E1E0F1E0C2A000E0D220E2299
:102AEC000F220CC012F00DC013F00EC014F00FC06A
:102AFC0015F089EF15F008C012F009C013F00AC0E8
:102B0C0014F00BC015F0085009100A100B10D8A4C3
:102B1C0092EF15F094EF15F09EEF15F0000E086E85
:102B2C00000E096E000E0A6E000E0B6E2FEF16F0E3
:102B3C00960E116EA8EF15F0112AD890153214329A
:102B4C0013321232000E12140C6E000E13140D6E92
:102B5C00000E14140E6EFE0E15140F6E0C500D108C
:102B6C000E100F10D8A4BDEF15F0BFEF15F0A2EFAB
:102B7C0015F0CDEF15F0112A010E1226000E1322BE
:102B8C0014221522D8901532143213321232000E40
:102B9C0012140C6E000E13140D6E000E14140E6E27
:102BAC00FF0E15140F6E0C500D100E100F10D8A434
:102BBC00E2EF15F0E4EF15F0C1EF15F0ECEF15F0C6
:102BCC001106D890123613361436153614BEF1EFA2
:102BDC0015F0F3EF15F0FBEF15F0020E1160F9EFA5
:102BEC0015F0FBEF15F0E6EF15F011B000EF16F055
:102BFC0002EF16F003EF16F0149ED890113211C0AC
:102C0C000CF00D6A0E6A0F6A0CC00FF00E6A0D6A9A
:102C1C000C6A0C5012120D5013120E5014120F504D
:102C2C0015121050D8B41DEF16F01FEF16F027EF49
:102C3C0016F00BBE26EF16F024EF16F027EF16F069
:102C4C00158E12C008F013C009F014C00AF015C09C
:102C5C000BF012001950800B266E195019242D6E92
:102C6C0018AE3BEF16F03DEF16F03EEF16F02D8050
:102C7C002D50D8B444EF16F046EF16F05AEF16F07C
:102C8C002D28D8A44CEF16F04EEF16F056EF16F098
:102C9C00000E166E000E176E000E186E000E196EDA
:102CAC00188E196A62EF16F0000E166E000E176E73
:102CBC00000E186E000E196E1D50800B261A1D503A
:102CCC001D242E6E1CAE6DEF16F06FEF16F070EF2C
:102CDC0016F02E802E50D8B476EF16F078EF16F052
:102CEC008CEF16F02E28D8A47EEF16F080EF16F09D
:102CFC0088EF16F0000E1A6E000E1B6E000E1C6E86
:102D0C00000E1D6E1C8E1D6A94EF16F0000E1A6ECE
:102D1C00000E1B6E000E1C6E000E1D6E1A501B104A
:102D2C001C101D10D8A49DEF16F09FEF16F0B7EFF6
:102D3C0016F0000E166E000E176E000E186E000EBA
:102D4C00196E800E18127F0E19122650191216C009
:102D5C0016F017C017F018C018F019C019F0F6EFDC
:102D6C0017F02D50D8A4BDEF16F0BFEF16F0C9EF39
:102D7C0016F0000E166E000E176E000E186E000E7A
:102D8C00196EF6EF17F02E502DC01EF01F6A1E5E46
:102D9C00000E1F5A7F0E1E24276E000E1F20286E59
:102DAC0016C022F017C023F018C024F019C025F06B
:102DBC00000E166E000E176E000E186E000E196EB9
:102DCC00000E296E000E2A6E000E2B6E000E2C6E5D
:102DDC002E6A29EF17F02E50D8B4F7EF16F0F9EF52
:102DEC0016F010EF17F0D8902236233624362536FD
:102DFC00D89016361736183619362CAE08EF17F051
:102E0C000AEF17F00BEF17F01680D89029362A36F8
:102E1C002B362C361A50225C1B5023581C5024582D
:102E2C001D502558D8A01DEF17F01FEF17F028EFF5
:102E3C0017F02C8C1A50225E1B50235A1C50245A0B
:102E4C001D50255A2E2A190E2E642FEF17F031EF34
:102E5C0017F0F1EF16F02250231024102510D8B4DF
:102E6C003AEF17F03CEF17F054EF17F0298054EFBE
:102E7C0017F0D89016361736183619362CAE49EF8F
:102E8C0017F04BEF17F04CEF17F01680D89029364F
:102E9C002A362B362C362706D8A0280618AE59EF22
:102EAC0017F05BEF17F03FEF17F02E6A2CAE61EFC7
:102EBC0017F063EF17F087EF17F0FF0E29141E6E53
:102ECC00FF0E2A141F6EFF0E2B14206E7F0E2C1477
:102EDC00216E1E501F1020102110D8B478EF17F05F
:102EEC007AEF17F07EEF17F0010E2E6E87EF17F0CA
:102EFC0016A083EF17F085EF17F087EF17F07AEF36
:102F0C0017F02E50D8B48DEF17F08FEF17F0B3EFFA
:102F1C0017F0010E1626000E17221822192219A0DE
:102F2C009AEF17F09CEF17F0B3EF17F016C01EF0E6
:102F3C0017C01FF018C020F019C021F02134213225
:102F4C0020321F321E321EC016F01FC017F020C0D8
:102F5C0018F021C019F0274A282A28BEBEEF17F016
:102F6C00285008E12728D8A0BEEF17F0C0EF17F0C3
:102F7C00CBEF17F0000E286E2768000E166E000EB1
:102F8C00176E000E186E000E196E28BED8EF17F0D3
:102F9C00285006E12704D8B0D6EF17F0D8EF17F079
:102FAC00E4EF17F0286A000E276E000E166E000E66
:102FBC00176E000E186E000E196E266A27C02DF0C3
:102FCC002DA0EBEF17F0EDEF17F0F0EF17F0188ED8
:102FDC00F1EF17F0189ED8902D30196EABEF16F05C
:0F2FEC0012000053504545440047454152000034
:042FFC0009EF12F0D7
:00000001FF
