:04000000FEEF17F008
:1006000000001950800B266E195019242D6E18AE5B
:100610000CEF03F00EEF03F00FEF03F02D802D50E1
:10062000D8B415EF03F017EF03F02BEF03F02D28EC
:10063000D8A41DEF03F01FEF03F027EF03F0000E27
:10064000166E000E176E000E186E000E196E188EC4
:10065000196A33EF03F0000E166E000E176E000ECF
:10066000186E000E196E1D50800B261A1D501D2489
:100670002E6E1CAE3EEF03F040EF03F041EF03F0AF
:100680002E802E50D8B447EF03F049EF03F05DEF12
:1006900003F02E28D8A44FEF03F051EF03F059EFE9
:1006A00003F0000E1A6E000E1B6E000E1C6E000E84
:1006B0001D6E1C8E1D6A65EF03F0000E1A6E000E93
:1006C0001B6E000E1C6E000E1D6E1A501B101C10AF
:1006D0001D10D8A46EEF03F070EF03F088EF03F065
:1006E000000E166E000E176E000E186E000E196EBC
:1006F000800E18127F0E19122650191216C016F00D
:1007000017C017F018C018F019C019F0C7EF04F09F
:100710002D50D8A48EEF03F090EF03F09AEF03F082
:10072000000E166E000E176E000E186E000E196E7B
:10073000C7EF04F02E502DC01EF01F6A1E5E000E83
:100740001F5A7F0E1E24276E000E1F20286E16C013
:1007500022F017C023F018C024F019C025F0000EB5
:10076000166E000E176E000E186E000E196E000E3B
:10077000296E000E2A6E000E2B6E000E2C6E2E6A55
:10078000FAEF03F02E50D8B4C8EF03F0CAEF03F02D
:10079000E1EF03F0D8902236233624362536D89060
:1007A00016361736183619362CAED9EF03F0DBEFB4
:1007B00003F0DCEF03F01680D89029362A362B366A
:1007C0002C361A50225C1B5023581C5024581D50A4
:1007D0002558D8A0EEEF03F0F0EF03F0F9EF03F0A7
:1007E0002C8C1A50225E1B50235A1C50245A1D5028
:1007F000255A2E2A190E2E6400EF04F002EF04F0A1
:10080000C2EF03F02250231024102510D8B40BEFB0
:1008100004F00DEF04F025EF04F0298025EF04F03B
:10082000D89016361736183619362CAE1AEF04F053
:100830001CEF04F01DEF04F01680D89029362A36FC
:100840002B362C362706D8A0280618AE2AEF04F03F
:100850002CEF04F010EF04F02E6A2CAE32EF04F00F
:1008600034EF04F058EF04F0FF0E29141E6EFF0E53
:100870002A141F6EFF0E2B14206E7F0E2C14216E77
:100880001E501F1020102110D8B449EF04F04BEF78
:1008900004F04FEF04F0010E2E6E58EF04F016A096
:1008A00054EF04F056EF04F058EF04F04BEF04F06F
:1008B0002E50D8B45EEF04F060EF04F084EF04F043
:1008C000010E1626000E17221822192219A06BEF0E
:1008D00004F06DEF04F084EF04F016C01EF017C0B2
:1008E0001FF018C020F019C021F02134213220322D
:1008F0001F321E321EC016F01FC017F020C018F0A5
:1009000021C019F0274A282A28BE8FEF04F028506A
:1009100008E12728D8A08FEF04F091EF04F09CEFB6
:1009200004F0000E286E2768000E166E000E176E7B
:10093000000E186E000E196E28BEA9EF04F02850A4
:1009400006E12704D8B0A7EF04F0A9EF04F0B5EF53
:1009500004F0286A000E276E000E166E000E176E49
:10096000000E186E000E196E266A27C02DF02DA0FD
:10097000BCEF04F0BEEF04F0C1EF04F0188EC2EF3C
:1009800004F0189ED8902D30196E7CEF03F0120001
:10099000106E1050D8B4CFEF04F0D1EF04F0F3EFA5
:1009A00004F00BBED8EF04F0D6EF04F0F3EF04F040
:1009B00008C00CF009C00DF00AC00EF00BC00FF01B
:1009C0000C1E0D1E0E1E0F1E0C2A000E0D220E22D6
:1009D0000F220CC012F00DC013F00EC014F00FC0A7
:1009E00015F0FBEF04F008C012F009C013F00AC0C4
:1009F00014F00BC015F0085009100A100B10D8A401
:100A000004EF05F006EF05F010EF05F0000E086E9C
:100A1000000E096E000E0A6E000E0B6EA1EF05F0BF
:100A2000960E116E1AEF05F0112AD8901532143275
:100A300013321232000E12140C6E000E13140D6ECF
:100A4000000E14140E6EFE0E15140F6E0C500D10C9
:100A50000E100F10D8A42FEF05F031EF05F014EFB2
:100A600005F03FEF05F0112A010E1226000E1322A9
:100A700014221522D8901532143213321232000E7D
:100A800012140C6E000E13140D6E000E14140E6E64
:100A9000FF0E15140F6E0C500D100E100F10D8A471
:100AA00054EF05F056EF05F033EF05F05EEF05F07B
:100AB0001106D890123613361436153614BE63EF6D
:100AC00005F065EF05F06DEF05F0020E11606BEFBC
:100AD00005F06DEF05F058EF05F011B072EF05F07D
:100AE00074EF05F075EF05F0149ED890113211C027
:100AF0000CF00D6A0E6A0F6A0CC00FF00E6A0D6AD8
:100B00000C6A0C5012120D5013120E5014120F508A
:100B100015121050D8B48FEF05F091EF05F099EF52
:100B200005F00BBE98EF05F096EF05F099EF05F094
:100B3000158E12C008F013C009F014C00AF015C0D9
:100B40000BF01200819A818C818E81B2AAEF05F0A0
:100B5000ACEF05F0AFEF05F0010E25EF06F081B424
:100B6000B4EF05F0B6EF05F0B9EF05F0040E25EF90
:100B700006F081B6BEEF05F0C0EF05F0C3EF05F05B
:100B8000070E25EF06F081B8C8EF05F0CAEF05F0B3
:100B9000CDEF05F00A0E25EF06F0818A819C818E4B
:100BA00081B2D5EF05F0D7EF05F0DAEF05F0020ED0
:100BB00025EF06F081B4DFEF05F0E1EF05F0E4EF9B
:100BC00005F0050E25EF06F081B6E9EF05F0EBEF35
:100BD00005F0EEEF05F0080E25EF06F081B8F3EF13
:100BE00005F0F5EF05F0F8EF05F00B0E25EF06F038
:100BF000818A818C819E819E81B201EF06F003EF94
:100C000006F006EF06F0030E25EF06F081B40BEFB9
:100C100006F00DEF06F010EF06F0060E25EF06F0D9
:100C200081B615EF06F017EF06F01AEF06F0090E81
:100C300025EF06F081B81FEF06F021EF06F024EF54
:100C400006F00C0E25EF06F0FF0E120031343234A0
:100C5000386E3850D8A42FEF06F031EF06F03BEF96
:100C600006F0000E2F6E000E306E000E316E000E7C
:100C7000326EA8EF06F02FC033F030C034F031C030
:100C800035F032C036F0200E4BEF06F0D8903632F9
:100C9000353234323332E82E46EF06F03350376EB9
:100CA000318EFF0E2F16FF0E3016FF0E3116000E7E
:100CB0003216960E385E38BE62EF06F060EF06F030
:100CC00078EF06F03850800A970FD8B06AEF06F038
:100CD0006CEF06F06EEF06F031EF06F0D89032328E
:100CE000313230322F32383E6EEF06F090EF06F0A0
:100CF0001F0E38647EEF06F080EF06F088EF06F0F6
:100D000031EF06F0D8902F3630363136323638068D
:100D10003850D8A48EEF06F090EF06F082EF06F080
:100D20003750D8B496EF06F098EF06F0A0EF06F033
:100D3000321E311E301E2F6C000E30223122322224
:100D40002FC02FF030C030F031C031F032C032F05F
:100D50001200010E5EEC07F0106E1050116E126A58
:100D600011041210D8A4B7EF06F0B9EF06F0CBEFDC
:100D700006F04CBEC7EF06F04C5007E1070E4B5C87
:100D8000D8B0C5EF06F0C7EF06F0F4EF06F04B4A17
:100D90004C2AF4EF06F0020E11181210D8A4D3EF6B
:100DA00006F0D5EF06F0E7EF06F04CBEE0EF06F0F8
:100DB0004C5008E14B04D8A0E0EF06F0E2EF06F05B
:100DC000F4EF06F04B06D8A04C06F4EF06F0030E45
:100DD00011181210D8A4EFEF06F0F1EF06F0F4EFBF
:100DE00006F04C6A080E4B6E066A200E056E4B50DC
:100DF000030DF350600F076E020E086ED1EC07F082
:100E0000340E106EF20EE82EFED7102EFCD7120014
:100E1000AE0E1A6E470E1B6E250E1C6E410E1D6E19
:100E2000040E3AEC08F001C008F002C009F00A6AAA
:100E30000B6A000EC8EC04F008C016F009C017F0E9
:100E40000AC018F00BC019F001EC03F016C02FF027
:100E500017C030F018C031F019C032F026EC06F09F
:100E60002FC03DF030C03EF03DC001F03EC002F06A
:100E7000046A0A0E036E98EC07F00150300F3A6EC8
:100E80003DC001F03EC002F0046A0A0E036E08EC99
:100E900008F00150300F3B6E3C6A066A100E056E7A
:100EA0003A0E076E020E086ED1EC07F0340E396E62
:100EB000F20EE82EFED7392EFCD71200016E010487
:100EC000D8A465EF07F067EF07F08AEF07F0A2EC10
:100ED00005F04F6E4F28D8B470EF07F072EF07F0AF
:100EE0007EEF07F05050D8B478EF07F07AEF07F0B4
:100EF0007EEF07F0506A4F5097EF07F04F28D8A4C5
:100F000084EF07F086EF07F096EF07F0010E506EC2
:100F100096EF07F00150D8A490EF07F092EF07F09A
:100F200096EF07F0A2EC05F097EF07F0FF0E120026
:100F3000066A000E056E03500410D8B4A2EF07F045
:100F4000A4EF07F0CCEF07F0010E076EACEF07F04F
:100F5000D89003360436072A04AEB1EF07F0B3EF9A
:100F600007F0A8EF07F0D890053606360350015C6D
:100F700004500258D8A0BFEF07F0C1EF07F0C6EF4A
:100F800007F00350015E0450025A0580D8900432E5
:100F90000332072EB3EF07F005C001F006C002F0E0
:100FA00012000F01436B446B05C001F006C002F054
:100FB0009DEC08F008C045FF460E0C6E0F0E0D6E3E
:100FC0000F6A000E0E6EF3EF07F007500E24D96E75
:100FD000DA6A0E500C24E16E0F500D20E26EDFCF66
:100FE000E7FF0E4A0F2A0850096E0A6A09500E5C84
:100FF0000F50800A0B6E0A50800A0B58D8A003EFDE
:1010000008F005EF08F0E5EF07F00F014087120048
:1010100003500410D8B40FEF08F011EF08F035EFCB
:1010200008F0010E056E19EF08F0D890033604366B
:10103000052A04AE1EEF08F020EF08F015EF08F0C7
:101040000350015C04500258D8A029EF08F02BEFA0
:1010500008F02FEF08F00350015E0450025AD890B8
:1010600004320332052E20EF08F001C001F002C067
:1010700002F01200076E07C003F0D8900336D89034
:101080000336C250C30B0310C26EC282C2B24BEF12
:1010900008F04DEF08F046EF08F0C350C4CF03F05E
:1010A000046A03C004F0036A0310056E0450066E60
:1010B00005C001F006C002F01200AE0EF66E110E71
:1010C000F76E000EF86E00EE60F010EE1BF00900F7
:1010D000F5CFEEFFE550E150FAE1000EF66E300E6E
:1010E000F76E000EF86E0900F5CF50F000EE3FF0FD
:1010F000110EEE6AE806FDE10001BBEF08F09394E3
:1011000093861F0E6F166F8E800E6E18D8A48BEF0D
:1011100008F08DEF08F084EF08F0776AE10E706E4A
:101120001B0E716E030E726E0D01D46B1F0E6F16C7
:101130006F50606A608A608C120001C003F0070E75
:101140000316050E046ED8900336042EA3EF08F0A4
:1011500003500F01426F01C003F002C004F0D890A9
:1011600004320332D89004320332D890043203326E
:101170000350416F1200C9EC08F0E5EC08F07FEC79
:1011800008F008EC07F0A9EC06F0C1EF08F0FEEF5C
:1011900017F0C08EC09AC088C096C090C082C0941C
:1011A000C292C19AC198C46AC36AC28012004F4EEB
:1011B00000474E00473100473200473300473400B4
:0911C000473500527200436C0037
:1011CA000F0EC16E1E0E936EF19E8150E009816E64
:0211DA00120001
:052FFC005DEF08F0018B
:00000001FF
