:04000000FEEF17F008
:100600000000040E75EC05F001C008F002C009F00E
:100610000A6A0B6A700E0C6E170E0D6E000E0E6ECF
:10062000000E0F6E40EC05F008C014F009C015F084
:100630000AC016F00BC017F0FF0E186E030E196EED
:10064000000E1A6E000E1B6E3EEC04F014C022F079
:1006500015C023F0030E046EE80E036E22C001F0F5
:1006600023C002F087EC03F001C009F002C00AF0D9
:100670000C6A0A0E0B6EE7EC03F00950300F246E83
:10068000046A640E036E22C001F023C002F087ECFE
:1006900003F001C009F002C00AF00C6A0A0E0B6EEA
:1006A000E7EC03F00950300F256E046A0A0E036E62
:1006B00022C001F023C002F087EC03F001C009F072
:1006C00002C00AF00C6A0A0E0B6EE7EC03F0095048
:1006D000300F266E22C009F023C00AF00C6A0A0E01
:1006E0000B6EE7EC03F00950300F276E066A300EF0
:1006F000056E240E076E040E086E09EC05F0340E2C
:10070000216EF20EE82EFED7212EFCD71200066ACB
:1007100004BE8FEF03F08DEF03F095EF03F0036C51
:10072000041ED8B0042A010E066E02BE9CEF03F030
:100730009AEF03F0A2EF03F0016C021ED8B0022A78
:10074000010E061A086A000E076E03500410D8B492
:10075000ACEF03F0AEEF03F0D6EF03F0010E056E41
:10076000B6EF03F0D89003360436052A04AEBBEF8B
:1007700003F0BDEF03F0B2EF03F0D8900736083670
:100780000350015C04500258D8A0C9EF03F0CBEF2E
:1007900003F0D0EF03F00350015E0450025A0780CB
:1007A000D89004320332052EBDEF03F00650D8B4C2
:1007B000DCEF03F0DEEF03F0E2EF03F0076C081E5E
:1007C000D8B0082A07C001F008C002F012000E6A73
:1007D0000ABEEFEF03F0EDEF03F0F5EF03F0096C65
:1007E0000A1ED8B00A2A010E0E6E0CBEFCEF03F0F2
:1007F000FAEF03F000EF04F00B6C0C1ED8B00C2ADB
:100800000B500C10D8B407EF04F009EF04F02DEFF3
:1008100004F0010E0D6E11EF04F0D8900B360C367B
:100820000D2A0CAE16EF04F018EF04F00DEF04F0F3
:100830000B50095C0C500A58D8A021EF04F023EFAC
:1008400004F027EF04F00B50095E0C500A5AD890C0
:100850000C320B320D2E18EF04F00E50D8B433EFDB
:1008600004F035EF04F039EF04F0096C0A1ED8B03B
:100870000A2A09C009F00AC00AF01200000E1C6E14
:10088000000E1D6E000E1E6E000E1F6E1850191009
:100890001A101B10D8B44FEF04F051EF04F087EF9B
:1008A00004F0010E206E5BEF04F0D8901836193674
:1008B0001A361B36202A1BAE60EF04F062EF04F0FC
:1008C00055EF04F0D8901C361D361E361F361850D2
:1008D000145C195015581A5016581B501758D8A0A8
:1008E00074EF04F076EF04F07FEF04F01850145E1C
:1008F0001950155A1A50165A1B50175A1C80D89066
:100900001B321A3219321832202E62EF04F01CC04A
:1009100014F01DC015F01EC016F01FC017F0120015
:10092000010ECFEC04F0106E1050116E126A0E0E14
:1009300011181210D8A49FEF04F0A1EF04F0A5EF56
:1009400004F0010E286EBEEF04F00B0E1118121009
:10095000D8A4ADEF04F0AFEF04F0B3EF04F0020E53
:10096000286EBEEF04F00D0E11181210D8A4BBEFC4
:1009700004F0BDEF04F0BEEF04F0286A066A500EE2
:10098000056E280E076E010E086E09EC05F0340E98
:10099000106EF20EE82EFED7102EFCD71200016E5C
:1009A0000104D8A4D6EF04F0D8EF04F0FDEF04F072
:1009B00082500F0B0F0AD8B4E0EF04F0E2EF04F01E
:1009C000EFEF04F02950D8B4E8EF04F0EAEF04F0B8
:1009D000EFEF04F0296A82500F0B08EF05F0825008
:1009E0000F0B0F0AD8A4F7EF04F0F9EF04F007EFAC
:1009F00005F0010E296E07EF05F00150D8A403EFB2
:100A000005F005EF05F007EF05F0EBEF04F0FF0E42
:100A100012000F01436B446B05C001F006C002F0E9
:100A2000B6EC05F008C045FF460E0C6E0F0E0D6EBD
:100A30000F6A000E0E6E2BEF05F007500E24D96ED4
:100A4000DA6A0E500C24E16E0F500D20E26EDFCFFB
:100A5000E7FF0E4A0F2A0850096E0A6A09500E5C19
:100A60000F50800A0B6E0A50800A0B58D8A03BEF3B
:100A700005F03DEF05F01DEF05F00F014087120076
:100A8000000E106E000E116E000E126E000E136E30
:100A900008A04DEF05F04FEF05F057EF05F00C50B3
:100AA00010260D5011220E5012220F501322D890F2
:100AB0000C360D360E360F36D8900B320A3209320C
:100AC0000832085009100A100B10D8A46AEF05F07C
:100AD0006CEF05F048EF05F010C008F011C009F008
:100AE00012C00AF013C00BF01200076E07C003F02B
:100AF000D8900336D8900336C250C30B0310C26E91
:100B0000C282C2B286EF05F088EF05F081EF05F0F2
:100B1000C350C4CF03F0046A03C004F0036A031097
:100B2000056E0450066E05C001F006C002F012000A
:100B3000939493861F0E6F166F8E800E6E18D8A436
:100B4000A4EF05F0A6EF05F09DEF05F0776AE10E42
:100B5000706E1B0E716E030E726E0D01D46B1F0E44
:100B60006F166F50606A608A608C120001C003F0DB
:100B7000070E0316050E046ED8900336042EBCEF44
:100B800005F003500F01426F01C003F002C004F0F2
:100B9000D89004320332D89004320332D890043211
:100BA00003320350416F1200000EF66E300EF76EE6
:100BB000000EF86E0900F5CF29F000EE22F0070EC6
:100BC000EE6AE806FDE10001F4EF05F0C08EC09A80
:100BD000C088C096C090C082C094C292C19AC19889
:100BE000C46AC36AC2801200FEEC05F001EC03F097
:100BF00090EC04F0F6EF05F0FEEF17F0E6EC05F0F0
:100C000005EC06F098EC05F0120094500F09946E74
:020C10001200D0
:052FFC00D4EF05F00117
:00000001FF
