:04000000FEEF17F008
:100600000000010E8EEC05F0026E0250046E056AC9
:100610000E0E04180510D8A410EF03F012EF03F02B
:100620001AEF03F0010E2E6E2F6A2D6A000E2C6E4B
:1006300037EF03F00B0E04180510D8A422EF03F0D7
:1006400024EF03F028EF03F0020E2E6E14EF03F0F8
:100650000D0E04180510D8A430EF03F032EF03F0AC
:1006600037EF03F02E6A2F6A2D6A000E2C6E2E5083
:10067000D8A43DEF03F03FEF03F047EF03F08150C4
:10068000FC0B816E81503F0B816EC3EF03F02E0493
:10069000D8A44DEF03F04FEF03F086EF03F0815045
:1006A0003F0B816E2C50026E2D50036E2C4A2D2A6A
:1006B00003BE64EF03F0035009E1C80E025CD8A04A
:1006C00064EF03F066EF03F0C3EF03F02F50D8B4EC
:1006D0006CEF03F06FEF03F0010E70EF03F0000E0C
:1006E0002F6E2F50D8B477EF03F079EF03F07EEF41
:1006F00003F081500309816E81EF03F08150FC0B00
:10070000816E2D6A000E2C6EC3EF03F0020E2E18C0
:10071000D8A48DEF03F08FEF03F0C3EF03F0815007
:10072000FC0B816E2C50026E2D50036E2C4A2D2A2C
:1007300003BEA4EF03F0035009E1C80E025CD8A089
:10074000A4EF03F0A6EF03F0C3EF03F02F50D8B4EB
:10075000ACEF03F0AFEF03F0010EB0EF03F0000ECB
:100760002F6E2F50D8B4B7EF03F0B9EF03F0BEEF00
:1007700003F08150C009816E81EF03F081503F0B7F
:10078000816E81EF03F01200040EFDEC05F001C054
:1007900008F002C009F00A6A0B6A700E0C6E170EA0
:1007A0000D6E000E0E6E000E0F6EC8EC05F008C048
:1007B00014F009C015F00AC016F00BC017F0FF0EB8
:1007C000186E030E196E000E1A6E000E1B6E01ECF1
:1007D00005F014C034F015C035F0030E046EE80EB9
:1007E000036E34C001F035C002F04AEC04F001C0E1
:1007F00009F002C00AF00C6A0A0E0B6EAAEC04F0B3
:100800000950210FD96EDA6ADF50306E046A640E27
:10081000036E34C001F035C002F04AEC04F001C0B0
:1008200009F002C00AF00C6A0A0E0B6EAAEC04F082
:100830000950210FD96EDA6ADF50316E046A0A0E50
:10084000036E34C001F035C002F04AEC04F001C080
:1008500009F002C00AF00C6A0A0E0B6EAAEC04F052
:100860000950210FD96EDA6ADF50326E34C009F0B8
:1008700035C00AF00C6A0A0E0B6EAAEC04F009509F
:10088000210FD96EDA6ADF50336E300E016E53ECF1
:1008900005F01200066A04BE52EF04F050EF04F0B7
:1008A00058EF04F0036C041ED8B0042A010E066E43
:1008B00002BE5FEF04F05DEF04F065EF04F0016C41
:1008C000021ED8B0022A010E061A086A000E076E30
:1008D00003500410D8B46FEF04F071EF04F099EFF7
:1008E00004F0010E056E79EF04F0D890033604365B
:1008F000052A04AE7EEF04F080EF04F075EF04F0FB
:10090000D890073608360350015C04500258D8A02E
:100910008CEF04F08EEF04F093EF04F00350015ECF
:100920000450025A0780D89004320332052E80EF1B
:1009300004F00650D8B49FEF04F0A1EF04F0A5EF47
:1009400004F0076C081ED8B0082A07C001F008C0E0
:1009500002F012000E6A0ABEB2EF04F0B0EF04F02B
:10096000B8EF04F0096C0A1ED8B00A2A010E0E6E08
:100970000CBEBFEF04F0BDEF04F0C3EF04F00B6C4E
:100980000C1ED8B00C2A0B500C10D8B4CAEF04F0CF
:10099000CCEF04F0F0EF04F0010E0D6ED4EF04F094
:1009A000D8900B360C360D2A0CAED9EF04F0DBEFE5
:1009B00004F0D0EF04F00B50095C0C500A58D8A09A
:1009C000E4EF04F0E6EF04F0EAEF04F00B50095E08
:1009D0000C500A5AD8900C320B320D2EDBEF04F07B
:1009E0000E50D8B4F6EF04F0F8EF04F0FCEF04F08A
:1009F000096C0A1ED8B00A2A09C009F00AC00AF018
:100A00001200000E1C6E000E1D6E000E1E6E000EFB
:100A10001F6E185019101A101B10D8B412EF05F0E1
:100A200014EF05F04AEF05F0010E206E1EEF05F001
:100A3000D890183619361A361B36202A1BAE23EFEB
:100A400005F025EF05F018EF05F0D8901C361D369F
:100A50001E361F361850145C195015581A50165867
:100A60001B501758D8A037EF05F039EF05F042EFCB
:100A700005F01850145E1950155A1A50165A1B508A
:100A8000175A1C80D8901B321A3219321832202E75
:100A900025EF05F01CC014F01DC015F01EC016F0A7
:100AA0001FC017F01200076A000E066E01500624E0
:100AB000D96EDA6ADF50836E06C002F0010E036E53
:100AC000022A65EF05F0D8900336022E63EF05F099
:100AD0008050F00B0310806E010E056EF40E046E54
:100AE0000406D8A00506042806E10528D8A47BEF53
:100AF00005F07DEF05F070EF05F0064A072A07BE06
:100B00008BEF05F0075009E1040E065CD8A08BEFCF
:100B100005F08DEF05F056EF05F01200016E0104AF
:100B2000D8A495EF05F097EF05F0BCEF05F08250E3
:100B30000F0B0F0AD8B49FEF05F0A1EF05F0AEEF51
:100B400005F02B50D8B4A7EF05F0A9EF05F0AEEFF4
:100B500005F02B6A82500F0BC7EF05F082500F0B88
:100B60000F0AD8A4B6EF05F0B8EF05F0C6EF05F010
:100B7000010E2B6EC6EF05F00150D8A4C2EF05F0B0
:100B8000C4EF05F0C6EF05F0AAEF05F0FF0E120066
:100B9000000E106E000E116E000E126E000E136E1F
:100BA00008A0D5EF05F0D7EF05F0DFEF05F00C500A
:100BB00010260D5011220E5012220F501322D890E1
:100BC0000C360D360E360F36D8900B320A320932FB
:100BD0000832085009100A100B10D8A4F2EF05F0E3
:100BE000F4EF05F0D0EF05F010C008F011C009F0E7
:100BF00012C00AF013C00BF01200076E07C003F01A
:100C0000D8900336D8900336C250C30B0310C26E7F
:100C1000C282C2B20EEF06F010EF06F009EF06F046
:100C2000C350C4CF03F0046A03C004F0036A031086
:100C3000056E0450066E05C001F006C002F01200F9
:100C4000DA0EF66E0C0EF76E000EF86E00EE21F066
:100C500010EE0BF00900F5CFEEFFE550E150FAE1A0
:100C600000EE2CF0080EEE6AE806FDE1000152EFFE
:100C700006F0C08EC09AC088C096C090C082C09452
:100C8000C292C19AC198C46AC36AC280120093908A
:100C900093929394939C939E81908192819481945A
:100CA000819612005CEC06F0C4EC03F001EC03F05A
:100CB00054EF06F0FEEF17F039EC06F073EC06F097
:100CC00065EC06F047EC06F01200956A9250F00BC6
:100CD000926E8050F00B806E1200E721CB6B2D6E70
:050CE000EE23EF6F019F
:080CE60094500F09946E1200F6
:042FFC0020EF06F0CC
:00000001FF
